{
    "_format": "hh-sol-artifact-1",
    "contractName": "Goo",
    "sourceName": "contracts/Goo.sol",
    "abi": [
        {
            "inputs": [
                {
                    "internalType": "address",
                    "name": "_address",
                    "type": "address"
                }
            ],
            "stateMutability": "nonpayable",
            "type": "constructor"
        },
        {
            "anonymous": false,
            "inputs": [
                {
                    "indexed": true,
                    "internalType": "address",
                    "name": "owner",
                    "type": "address"
                },
                {
                    "indexed": true,
                    "internalType": "address",
                    "name": "spender",
                    "type": "address"
                },
                {
                    "indexed": false,
                    "internalType": "uint256",
                    "name": "value",
                    "type": "uint256"
                }
            ],
            "name": "Approval",
            "type": "event"
        },
        {
            "anonymous": false,
            "inputs": [
                {
                    "indexed": true,
                    "internalType": "address",
                    "name": "previousOwner",
                    "type": "address"
                },
                {
                    "indexed": true,
                    "internalType": "address",
                    "name": "newOwner",
                    "type": "address"
                }
            ],
            "name": "OwnershipTransferred",
            "type": "event"
        },
        {
            "anonymous": false,
            "inputs": [
                {
                    "indexed": true,
                    "internalType": "address",
                    "name": "from",
                    "type": "address"
                },
                {
                    "indexed": true,
                    "internalType": "address",
                    "name": "to",
                    "type": "address"
                },
                {
                    "indexed": false,
                    "internalType": "uint256",
                    "name": "value",
                    "type": "uint256"
                }
            ],
            "name": "Transfer",
            "type": "event"
        },
        {
            "inputs": [
                {
                    "internalType": "address",
                    "name": "owner",
                    "type": "address"
                },
                {
                    "internalType": "address",
                    "name": "spender",
                    "type": "address"
                }
            ],
            "name": "allowance",
            "outputs": [
                {
                    "internalType": "uint256",
                    "name": "",
                    "type": "uint256"
                }
            ],
            "stateMutability": "view",
            "type": "function"
        },
        {
            "inputs": [
                {
                    "internalType": "address",
                    "name": "spender",
                    "type": "address"
                },
                {
                    "internalType": "uint256",
                    "name": "amount",
                    "type": "uint256"
                }
            ],
            "name": "approve",
            "outputs": [
                {
                    "internalType": "bool",
                    "name": "",
                    "type": "bool"
                }
            ],
            "stateMutability": "nonpayable",
            "type": "function"
        },
        {
            "inputs": [
                {
                    "internalType": "address",
                    "name": "account",
                    "type": "address"
                }
            ],
            "name": "balanceOf",
            "outputs": [
                {
                    "internalType": "uint256",
                    "name": "",
                    "type": "uint256"
                }
            ],
            "stateMutability": "view",
            "type": "function"
        },
        {
            "inputs": [
                {
                    "internalType": "address",
                    "name": "_user",
                    "type": "address"
                },
                {
                    "internalType": "uint256",
                    "name": "_amount",
                    "type": "uint256"
                }
            ],
            "name": "burn",
            "outputs": [],
            "stateMutability": "nonpayable",
            "type": "function"
        },
        {
            "inputs": [],
            "name": "decimals",
            "outputs": [
                {
                    "internalType": "uint8",
                    "name": "",
                    "type": "uint8"
                }
            ],
            "stateMutability": "view",
            "type": "function"
        },
        {
            "inputs": [
                {
                    "internalType": "address",
                    "name": "spender",
                    "type": "address"
                },
                {
                    "internalType": "uint256",
                    "name": "subtractedValue",
                    "type": "uint256"
                }
            ],
            "name": "decreaseAllowance",
            "outputs": [
                {
                    "internalType": "bool",
                    "name": "",
                    "type": "bool"
                }
            ],
            "stateMutability": "nonpayable",
            "type": "function"
        },
        {
            "inputs": [
                {
                    "internalType": "address",
                    "name": "spender",
                    "type": "address"
                },
                {
                    "internalType": "uint256",
                    "name": "addedValue",
                    "type": "uint256"
                }
            ],
            "name": "increaseAllowance",
            "outputs": [
                {
                    "internalType": "bool",
                    "name": "",
                    "type": "bool"
                }
            ],
            "stateMutability": "nonpayable",
            "type": "function"
        },
        {
            "inputs": [
                {
                    "internalType": "address",
                    "name": "_to",
                    "type": "address"
                },
                {
                    "internalType": "uint256",
                    "name": "_amount",
                    "type": "uint256"
                }
            ],
            "name": "mint",
            "outputs": [],
            "stateMutability": "nonpayable",
            "type": "function"
        },
        {
            "inputs": [],
            "name": "name",
            "outputs": [
                {
                    "internalType": "string",
                    "name": "",
                    "type": "string"
                }
            ],
            "stateMutability": "view",
            "type": "function"
        },
        {
            "inputs": [],
            "name": "owner",
            "outputs": [
                {
                    "internalType": "address",
                    "name": "",
                    "type": "address"
                }
            ],
            "stateMutability": "view",
            "type": "function"
        },
        {
            "inputs": [],
            "name": "renounceOwnership",
            "outputs": [],
            "stateMutability": "nonpayable",
            "type": "function"
        },
        {
            "inputs": [
                {
                    "internalType": "address",
                    "name": "_newAddress",
                    "type": "address"
                }
            ],
            "name": "setShapeshifters",
            "outputs": [],
            "stateMutability": "nonpayable",
            "type": "function"
        },
        {
            "inputs": [],
            "name": "shapeshifters",
            "outputs": [
                {
                    "internalType": "address",
                    "name": "",
                    "type": "address"
                }
            ],
            "stateMutability": "view",
            "type": "function"
        },
        {
            "inputs": [],
            "name": "symbol",
            "outputs": [
                {
                    "internalType": "string",
                    "name": "",
                    "type": "string"
                }
            ],
            "stateMutability": "view",
            "type": "function"
        },
        {
            "inputs": [],
            "name": "totalSupply",
            "outputs": [
                {
                    "internalType": "uint256",
                    "name": "",
                    "type": "uint256"
                }
            ],
            "stateMutability": "view",
            "type": "function"
        },
        {
            "inputs": [
                {
                    "internalType": "address",
                    "name": "to",
                    "type": "address"
                },
                {
                    "internalType": "uint256",
                    "name": "amount",
                    "type": "uint256"
                }
            ],
            "name": "transfer",
            "outputs": [
                {
                    "internalType": "bool",
                    "name": "",
                    "type": "bool"
                }
            ],
            "stateMutability": "nonpayable",
            "type": "function"
        },
        {
            "inputs": [
                {
                    "internalType": "address",
                    "name": "from",
                    "type": "address"
                },
                {
                    "internalType": "address",
                    "name": "to",
                    "type": "address"
                },
                {
                    "internalType": "uint256",
                    "name": "amount",
                    "type": "uint256"
                }
            ],
            "name": "transferFrom",
            "outputs": [
                {
                    "internalType": "bool",
                    "name": "",
                    "type": "bool"
                }
            ],
            "stateMutability": "nonpayable",
            "type": "function"
        },
        {
            "inputs": [
                {
                    "internalType": "address",
                    "name": "newOwner",
                    "type": "address"
                }
            ],
            "name": "transferOwnership",
            "outputs": [],
            "stateMutability": "nonpayable",
            "type": "function"
        }
    ],
    "bytecode": "0x60806040523480156200001157600080fd5b5060405162002182380380620021828339818101604052810190620000379190620002d4565b6040518060400160405280600381526020017f476f6f00000000000000000000000000000000000000000000000000000000008152506040518060400160405280600381526020017f474f4f00000000000000000000000000000000000000000000000000000000008152508160039080519060200190620000bb9291906200020d565b508060049080519060200190620000d49291906200020d565b505050620000f7620000eb6200013f60201b60201c565b6200014760201b60201c565b80600660006101000a81548173ffffffffffffffffffffffffffffffffffffffff021916908373ffffffffffffffffffffffffffffffffffffffff16021790555050620003b3565b600033905090565b6000600560009054906101000a900473ffffffffffffffffffffffffffffffffffffffff16905081600560006101000a81548173ffffffffffffffffffffffffffffffffffffffff021916908373ffffffffffffffffffffffffffffffffffffffff1602179055508173ffffffffffffffffffffffffffffffffffffffff168173ffffffffffffffffffffffffffffffffffffffff167f8be0079c531659141344cd1fd0a4f28419497f9722a3daafe3b4186f6b6457e060405160405180910390a35050565b8280546200021b9062000334565b90600052602060002090601f0160209004810192826200023f57600085556200028b565b82601f106200025a57805160ff19168380011785556200028b565b828001600101855582156200028b579182015b828111156200028a5782518255916020019190600101906200026d565b5b5090506200029a91906200029e565b5090565b5b80821115620002b95760008160009055506001016200029f565b5090565b600081519050620002ce8162000399565b92915050565b600060208284031215620002e757600080fd5b6000620002f784828501620002bd565b91505092915050565b60006200030d8262000314565b9050919050565b600073ffffffffffffffffffffffffffffffffffffffff82169050919050565b600060028204905060018216806200034d57607f821691505b602082108114156200036457620003636200036a565b5b50919050565b7f4e487b7100000000000000000000000000000000000000000000000000000000600052602260045260246000fd5b620003a48162000300565b8114620003b057600080fd5b50565b611dbf80620003c36000396000f3fe608060405234801561001057600080fd5b50600436106101165760003560e01c8063715018a6116100a25780639f2105e0116100715780639f2105e0146102cf578063a457c2d7146102ed578063a9059cbb1461031d578063dd62ed3e1461034d578063f2fde38b1461037d57610116565b8063715018a61461026d5780638da5cb5b1461027757806395d89b41146102955780639dc29fac146102b357610116565b8063313ce567116100e9578063313ce567146101b757806339509351146101d557806340c10f1914610205578063595180261461022157806370a082311461023d57610116565b806306fdde031461011b578063095ea7b31461013957806318160ddd1461016957806323b872dd14610187575b600080fd5b610123610399565b6040516101309190611672565b60405180910390f35b610153600480360381019061014e91906113e7565b61042b565b6040516101609190611657565b60405180910390f35b61017161044e565b60405161017e9190611814565b60405180910390f35b6101a1600480360381019061019c9190611398565b610458565b6040516101ae9190611657565b60405180910390f35b6101bf610487565b6040516101cc919061182f565b60405180910390f35b6101ef60048036038101906101ea91906113e7565b610490565b6040516101fc9190611657565b60405180910390f35b61021f600480360381019061021a91906113e7565b6104c7565b005b61023b60048036038101906102369190611333565b61052f565b005b61025760048036038101906102529190611333565b6105ef565b6040516102649190611814565b60405180910390f35b610275610637565b005b61027f6106bf565b60405161028c919061163c565b60405180910390f35b61029d6106e9565b6040516102aa9190611672565b60405180910390f35b6102cd60048036038101906102c891906113e7565b61077b565b005b6102d76107e3565b6040516102e4919061163c565b60405180910390f35b610307600480360381019061030291906113e7565b610809565b6040516103149190611657565b60405180910390f35b610337600480360381019061033291906113e7565b610880565b6040516103449190611657565b60405180910390f35b6103676004803603810190610362919061135c565b6108a3565b6040516103749190611814565b60405180910390f35b61039760048036038101906103929190611333565b61092a565b005b6060600380546103a890611978565b80601f01602080910402602001604051908101604052809291908181526020018280546103d490611978565b80156104215780601f106103f657610100808354040283529160200191610421565b820191906000526020600020905b81548152906001019060200180831161040457829003601f168201915b5050505050905090565b600080610436610a22565b9050610443818585610a2a565b600191505092915050565b6000600254905090565b600080610463610a22565b9050610470858285610bf5565b61047b858585610c81565b60019150509392505050565b60006012905090565b60008061049b610a22565b90506104bc8185856104ad85896108a3565b6104b79190611866565b610a2a565b600191505092915050565b600660009054906101000a900473ffffffffffffffffffffffffffffffffffffffff1673ffffffffffffffffffffffffffffffffffffffff163373ffffffffffffffffffffffffffffffffffffffff161461052157600080fd5b61052b8282610f02565b5050565b610537610a22565b73ffffffffffffffffffffffffffffffffffffffff166105556106bf565b73ffffffffffffffffffffffffffffffffffffffff16146105ab576040517f08c379a00000000000000000000000000000000000000000000000000000000081526004016105a290611754565b60405180910390fd5b80600660006101000a81548173ffffffffffffffffffffffffffffffffffffffff021916908373ffffffffffffffffffffffffffffffffffffffff16021790555050565b60008060008373ffffffffffffffffffffffffffffffffffffffff1673ffffffffffffffffffffffffffffffffffffffff168152602001908152602001600020549050919050565b61063f610a22565b73ffffffffffffffffffffffffffffffffffffffff1661065d6106bf565b73ffffffffffffffffffffffffffffffffffffffff16146106b3576040517f08c379a00000000000000000000000000000000000000000000000000000000081526004016106aa90611754565b60405180910390fd5b6106bd6000611062565b565b6000600560009054906101000a900473ffffffffffffffffffffffffffffffffffffffff16905090565b6060600480546106f890611978565b80601f016020809104026020016040519081016040528092919081815260200182805461072490611978565b80156107715780601f1061074657610100808354040283529160200191610771565b820191906000526020600020905b81548152906001019060200180831161075457829003601f168201915b5050505050905090565b600660009054906101000a900473ffffffffffffffffffffffffffffffffffffffff1673ffffffffffffffffffffffffffffffffffffffff163373ffffffffffffffffffffffffffffffffffffffff16146107d557600080fd5b6107df8282611128565b5050565b600660009054906101000a900473ffffffffffffffffffffffffffffffffffffffff1681565b600080610814610a22565b9050600061082282866108a3565b905083811015610867576040517f08c379a000000000000000000000000000000000000000000000000000000000815260040161085e906117d4565b60405180910390fd5b6108748286868403610a2a565b60019250505092915050565b60008061088b610a22565b9050610898818585610c81565b600191505092915050565b6000600160008473ffffffffffffffffffffffffffffffffffffffff1673ffffffffffffffffffffffffffffffffffffffff16815260200190815260200160002060008373ffffffffffffffffffffffffffffffffffffffff1673ffffffffffffffffffffffffffffffffffffffff16815260200190815260200160002054905092915050565b610932610a22565b73ffffffffffffffffffffffffffffffffffffffff166109506106bf565b73ffffffffffffffffffffffffffffffffffffffff16146109a6576040517f08c379a000000000000000000000000000000000000000000000000000000000815260040161099d90611754565b60405180910390fd5b600073ffffffffffffffffffffffffffffffffffffffff168173ffffffffffffffffffffffffffffffffffffffff161415610a16576040517f08c379a0000000000000000000000000000000000000000000000000000000008152600401610a0d906116d4565b60405180910390fd5b610a1f81611062565b50565b600033905090565b600073ffffffffffffffffffffffffffffffffffffffff168373ffffffffffffffffffffffffffffffffffffffff161415610a9a576040517f08c379a0000000000000000000000000000000000000000000000000000000008152600401610a91906117b4565b60405180910390fd5b600073ffffffffffffffffffffffffffffffffffffffff168273ffffffffffffffffffffffffffffffffffffffff161415610b0a576040517f08c379a0000000000000000000000000000000000000000000000000000000008152600401610b01906116f4565b60405180910390fd5b80600160008573ffffffffffffffffffffffffffffffffffffffff1673ffffffffffffffffffffffffffffffffffffffff16815260200190815260200160002060008473ffffffffffffffffffffffffffffffffffffffff1673ffffffffffffffffffffffffffffffffffffffff168152602001908152602001600020819055508173ffffffffffffffffffffffffffffffffffffffff168373ffffffffffffffffffffffffffffffffffffffff167f8c5be1e5ebec7d5bd14f71427d1e84f3dd0314c0f7b2291e5b200ac8c7c3b92583604051610be89190611814565b60405180910390a3505050565b6000610c0184846108a3565b90507fffffffffffffffffffffffffffffffffffffffffffffffffffffffffffffffff8114610c7b5781811015610c6d576040517f08c379a0000000000000000000000000000000000000000000000000000000008152600401610c6490611714565b60405180910390fd5b610c7a8484848403610a2a565b5b50505050565b600073ffffffffffffffffffffffffffffffffffffffff168373ffffffffffffffffffffffffffffffffffffffff161415610cf1576040517f08c379a0000000000000000000000000000000000000000000000000000000008152600401610ce890611794565b60405180910390fd5b600073ffffffffffffffffffffffffffffffffffffffff168273ffffffffffffffffffffffffffffffffffffffff161415610d61576040517f08c379a0000000000000000000000000000000000000000000000000000000008152600401610d5890611694565b60405180910390fd5b610d6c8383836112ff565b60008060008573ffffffffffffffffffffffffffffffffffffffff1673ffffffffffffffffffffffffffffffffffffffff16815260200190815260200160002054905081811015610df2576040517f08c379a0000000000000000000000000000000000000000000000000000000008152600401610de990611734565b60405180910390fd5b8181036000808673ffffffffffffffffffffffffffffffffffffffff1673ffffffffffffffffffffffffffffffffffffffff16815260200190815260200160002081905550816000808573ffffffffffffffffffffffffffffffffffffffff1673ffffffffffffffffffffffffffffffffffffffff1681526020019081526020016000206000828254610e859190611866565b925050819055508273ffffffffffffffffffffffffffffffffffffffff168473ffffffffffffffffffffffffffffffffffffffff167fddf252ad1be2c89b69c2b068fc378daa952ba7f163c4a11628f55a4df523b3ef84604051610ee99190611814565b60405180910390a3610efc848484611304565b50505050565b600073ffffffffffffffffffffffffffffffffffffffff168273ffffffffffffffffffffffffffffffffffffffff161415610f72576040517f08c379a0000000000000000000000000000000000000000000000000000000008152600401610f69906117f4565b60405180910390fd5b610f7e600083836112ff565b8060026000828254610f909190611866565b92505081905550806000808473ffffffffffffffffffffffffffffffffffffffff1673ffffffffffffffffffffffffffffffffffffffff1681526020019081526020016000206000828254610fe59190611866565b925050819055508173ffffffffffffffffffffffffffffffffffffffff16600073ffffffffffffffffffffffffffffffffffffffff167fddf252ad1be2c89b69c2b068fc378daa952ba7f163c4a11628f55a4df523b3ef8360405161104a9190611814565b60405180910390a361105e60008383611304565b5050565b6000600560009054906101000a900473ffffffffffffffffffffffffffffffffffffffff16905081600560006101000a81548173ffffffffffffffffffffffffffffffffffffffff021916908373ffffffffffffffffffffffffffffffffffffffff1602179055508173ffffffffffffffffffffffffffffffffffffffff168173ffffffffffffffffffffffffffffffffffffffff167f8be0079c531659141344cd1fd0a4f28419497f9722a3daafe3b4186f6b6457e060405160405180910390a35050565b600073ffffffffffffffffffffffffffffffffffffffff168273ffffffffffffffffffffffffffffffffffffffff161415611198576040517f08c379a000000000000000000000000000000000000000000000000000000000815260040161118f90611774565b60405180910390fd5b6111a4826000836112ff565b60008060008473ffffffffffffffffffffffffffffffffffffffff1673ffffffffffffffffffffffffffffffffffffffff1681526020019081526020016000205490508181101561122a576040517f08c379a0000000000000000000000000000000000000000000000000000000008152600401611221906116b4565b60405180910390fd5b8181036000808573ffffffffffffffffffffffffffffffffffffffff1673ffffffffffffffffffffffffffffffffffffffff16815260200190815260200160002081905550816002600082825461128191906118bc565b92505081905550600073ffffffffffffffffffffffffffffffffffffffff168373ffffffffffffffffffffffffffffffffffffffff167fddf252ad1be2c89b69c2b068fc378daa952ba7f163c4a11628f55a4df523b3ef846040516112e69190611814565b60405180910390a36112fa83600084611304565b505050565b505050565b505050565b60008135905061131881611d5b565b92915050565b60008135905061132d81611d72565b92915050565b60006020828403121561134557600080fd5b600061135384828501611309565b91505092915050565b6000806040838503121561136f57600080fd5b600061137d85828601611309565b925050602061138e85828601611309565b9150509250929050565b6000806000606084860312156113ad57600080fd5b60006113bb86828701611309565b93505060206113cc86828701611309565b92505060406113dd8682870161131e565b9150509250925092565b600080604083850312156113fa57600080fd5b600061140885828601611309565b92505060206114198582860161131e565b9150509250929050565b61142c816118f0565b82525050565b61143b81611902565b82525050565b600061144c8261184a565b6114568185611855565b9350611466818560208601611945565b61146f81611a08565b840191505092915050565b6000611487602383611855565b915061149282611a19565b604082019050919050565b60006114aa602283611855565b91506114b582611a68565b604082019050919050565b60006114cd602683611855565b91506114d882611ab7565b604082019050919050565b60006114f0602283611855565b91506114fb82611b06565b604082019050919050565b6000611513601d83611855565b915061151e82611b55565b602082019050919050565b6000611536602683611855565b915061154182611b7e565b604082019050919050565b6000611559602083611855565b915061156482611bcd565b602082019050919050565b600061157c602183611855565b915061158782611bf6565b604082019050919050565b600061159f602583611855565b91506115aa82611c45565b604082019050919050565b60006115c2602483611855565b91506115cd82611c94565b604082019050919050565b60006115e5602583611855565b91506115f082611ce3565b604082019050919050565b6000611608601f83611855565b915061161382611d32565b602082019050919050565b6116278161192e565b82525050565b61163681611938565b82525050565b60006020820190506116516000830184611423565b92915050565b600060208201905061166c6000830184611432565b92915050565b6000602082019050818103600083015261168c8184611441565b905092915050565b600060208201905081810360008301526116ad8161147a565b9050919050565b600060208201905081810360008301526116cd8161149d565b9050919050565b600060208201905081810360008301526116ed816114c0565b9050919050565b6000602082019050818103600083015261170d816114e3565b9050919050565b6000602082019050818103600083015261172d81611506565b9050919050565b6000602082019050818103600083015261174d81611529565b9050919050565b6000602082019050818103600083015261176d8161154c565b9050919050565b6000602082019050818103600083015261178d8161156f565b9050919050565b600060208201905081810360008301526117ad81611592565b9050919050565b600060208201905081810360008301526117cd816115b5565b9050919050565b600060208201905081810360008301526117ed816115d8565b9050919050565b6000602082019050818103600083015261180d816115fb565b9050919050565b6000602082019050611829600083018461161e565b92915050565b6000602082019050611844600083018461162d565b92915050565b600081519050919050565b600082825260208201905092915050565b60006118718261192e565b915061187c8361192e565b9250827fffffffffffffffffffffffffffffffffffffffffffffffffffffffffffffffff038211156118b1576118b06119aa565b5b828201905092915050565b60006118c78261192e565b91506118d28361192e565b9250828210156118e5576118e46119aa565b5b828203905092915050565b60006118fb8261190e565b9050919050565b60008115159050919050565b600073ffffffffffffffffffffffffffffffffffffffff82169050919050565b6000819050919050565b600060ff82169050919050565b60005b83811015611963578082015181840152602081019050611948565b83811115611972576000848401525b50505050565b6000600282049050600182168061199057607f821691505b602082108114156119a4576119a36119d9565b5b50919050565b7f4e487b7100000000000000000000000000000000000000000000000000000000600052601160045260246000fd5b7f4e487b7100000000000000000000000000000000000000000000000000000000600052602260045260246000fd5b6000601f19601f8301169050919050565b7f45524332303a207472616e7366657220746f20746865207a65726f206164647260008201527f6573730000000000000000000000000000000000000000000000000000000000602082015250565b7f45524332303a206275726e20616d6f756e7420657863656564732062616c616e60008201527f6365000000000000000000000000000000000000000000000000000000000000602082015250565b7f4f776e61626c653a206e6577206f776e657220697320746865207a65726f206160008201527f6464726573730000000000000000000000000000000000000000000000000000602082015250565b7f45524332303a20617070726f766520746f20746865207a65726f20616464726560008201527f7373000000000000000000000000000000000000000000000000000000000000602082015250565b7f45524332303a20696e73756666696369656e7420616c6c6f77616e6365000000600082015250565b7f45524332303a207472616e7366657220616d6f756e742065786365656473206260008201527f616c616e63650000000000000000000000000000000000000000000000000000602082015250565b7f4f776e61626c653a2063616c6c6572206973206e6f7420746865206f776e6572600082015250565b7f45524332303a206275726e2066726f6d20746865207a65726f2061646472657360008201527f7300000000000000000000000000000000000000000000000000000000000000602082015250565b7f45524332303a207472616e736665722066726f6d20746865207a65726f20616460008201527f6472657373000000000000000000000000000000000000000000000000000000602082015250565b7f45524332303a20617070726f76652066726f6d20746865207a65726f2061646460008201527f7265737300000000000000000000000000000000000000000000000000000000602082015250565b7f45524332303a2064656372656173656420616c6c6f77616e63652062656c6f7760008201527f207a65726f000000000000000000000000000000000000000000000000000000602082015250565b7f45524332303a206d696e7420746f20746865207a65726f206164647265737300600082015250565b611d64816118f0565b8114611d6f57600080fd5b50565b611d7b8161192e565b8114611d8657600080fd5b5056fea264697066735822122038ec31747543409e144d6cbaa812093c2adef9344de6375bdd69c97419c9a31e64736f6c63430008040033",
    "linkReferences": {},
    "deployedLinkReferences": {}
}