{
    "_format": "hh-sol-artifact-1",
    "contractName": "Shapeshifters",
    "sourceName": "contracts/Shapeshifters.sol",
    "abi": [
        {
            "inputs": [],
            "stateMutability": "nonpayable",
            "type": "constructor"
        },
        {
            "anonymous": false,
            "inputs": [
                {
                    "indexed": true,
                    "internalType": "address",
                    "name": "owner",
                    "type": "address"
                },
                {
                    "indexed": true,
                    "internalType": "address",
                    "name": "approved",
                    "type": "address"
                },
                {
                    "indexed": true,
                    "internalType": "uint256",
                    "name": "tokenId",
                    "type": "uint256"
                }
            ],
            "name": "Approval",
            "type": "event"
        },
        {
            "anonymous": false,
            "inputs": [
                {
                    "indexed": true,
                    "internalType": "address",
                    "name": "owner",
                    "type": "address"
                },
                {
                    "indexed": true,
                    "internalType": "address",
                    "name": "operator",
                    "type": "address"
                },
                {
                    "indexed": false,
                    "internalType": "bool",
                    "name": "approved",
                    "type": "bool"
                }
            ],
            "name": "ApprovalForAll",
            "type": "event"
        },
        {
            "anonymous": false,
            "inputs": [
                {
                    "indexed": true,
                    "internalType": "address",
                    "name": "previousOwner",
                    "type": "address"
                },
                {
                    "indexed": true,
                    "internalType": "address",
                    "name": "newOwner",
                    "type": "address"
                }
            ],
            "name": "OwnershipTransferred",
            "type": "event"
        },
        {
            "anonymous": false,
            "inputs": [
                {
                    "indexed": true,
                    "internalType": "address",
                    "name": "from",
                    "type": "address"
                },
                {
                    "indexed": true,
                    "internalType": "address",
                    "name": "to",
                    "type": "address"
                },
                {
                    "indexed": true,
                    "internalType": "uint256",
                    "name": "tokenId",
                    "type": "uint256"
                }
            ],
            "name": "Transfer",
            "type": "event"
        },
        {
            "inputs": [],
            "name": "Goo",
            "outputs": [
                {
                    "internalType": "contract iGoo",
                    "name": "",
                    "type": "address"
                }
            ],
            "stateMutability": "view",
            "type": "function"
        },
        {
            "inputs": [
                {
                    "internalType": "address",
                    "name": "to",
                    "type": "address"
                },
                {
                    "internalType": "uint256",
                    "name": "tokenId",
                    "type": "uint256"
                }
            ],
            "name": "approve",
            "outputs": [],
            "stateMutability": "nonpayable",
            "type": "function"
        },
        {
            "inputs": [
                {
                    "internalType": "address",
                    "name": "owner",
                    "type": "address"
                }
            ],
            "name": "balanceOf",
            "outputs": [
                {
                    "internalType": "uint256",
                    "name": "",
                    "type": "uint256"
                }
            ],
            "stateMutability": "view",
            "type": "function"
        },
        {
            "inputs": [],
            "name": "baseURI",
            "outputs": [
                {
                    "internalType": "string",
                    "name": "",
                    "type": "string"
                }
            ],
            "stateMutability": "view",
            "type": "function"
        },
        {
            "inputs": [],
            "name": "cost",
            "outputs": [
                {
                    "internalType": "uint256",
                    "name": "",
                    "type": "uint256"
                }
            ],
            "stateMutability": "view",
            "type": "function"
        },
        {
            "inputs": [],
            "name": "flipSale",
            "outputs": [],
            "stateMutability": "nonpayable",
            "type": "function"
        },
        {
            "inputs": [
                {
                    "internalType": "uint256",
                    "name": "tokenId",
                    "type": "uint256"
                }
            ],
            "name": "getApproved",
            "outputs": [
                {
                    "internalType": "address",
                    "name": "",
                    "type": "address"
                }
            ],
            "stateMutability": "view",
            "type": "function"
        },
        {
            "inputs": [
                {
                    "internalType": "uint256",
                    "name": "",
                    "type": "uint256"
                }
            ],
            "name": "inPool",
            "outputs": [
                {
                    "internalType": "bool",
                    "name": "",
                    "type": "bool"
                }
            ],
            "stateMutability": "view",
            "type": "function"
        },
        {
            "inputs": [
                {
                    "internalType": "address",
                    "name": "owner",
                    "type": "address"
                },
                {
                    "internalType": "address",
                    "name": "operator",
                    "type": "address"
                }
            ],
            "name": "isApprovedForAll",
            "outputs": [
                {
                    "internalType": "bool",
                    "name": "",
                    "type": "bool"
                }
            ],
            "stateMutability": "view",
            "type": "function"
        },
        {
            "inputs": [
                {
                    "internalType": "uint256",
                    "name": "_tokenId",
                    "type": "uint256"
                }
            ],
            "name": "liquidate",
            "outputs": [],
            "stateMutability": "nonpayable",
            "type": "function"
        },
        {
            "inputs": [],
            "name": "maxSupply",
            "outputs": [
                {
                    "internalType": "uint256",
                    "name": "",
                    "type": "uint256"
                }
            ],
            "stateMutability": "view",
            "type": "function"
        },
        {
            "inputs": [],
            "name": "mint",
            "outputs": [],
            "stateMutability": "payable",
            "type": "function"
        },
        {
            "inputs": [
                {
                    "internalType": "uint256[]",
                    "name": "_tokenIds",
                    "type": "uint256[]"
                }
            ],
            "name": "mintMultipleWithGoo",
            "outputs": [],
            "stateMutability": "nonpayable",
            "type": "function"
        },
        {
            "inputs": [
                {
                    "internalType": "uint256",
                    "name": "_tokenId",
                    "type": "uint256"
                }
            ],
            "name": "mintWithGoo",
            "outputs": [],
            "stateMutability": "nonpayable",
            "type": "function"
        },
        {
            "inputs": [
                {
                    "internalType": "address",
                    "name": "",
                    "type": "address"
                }
            ],
            "name": "minted",
            "outputs": [
                {
                    "internalType": "bool",
                    "name": "",
                    "type": "bool"
                }
            ],
            "stateMutability": "view",
            "type": "function"
        },
        {
            "inputs": [],
            "name": "name",
            "outputs": [
                {
                    "internalType": "string",
                    "name": "",
                    "type": "string"
                }
            ],
            "stateMutability": "view",
            "type": "function"
        },
        {
            "inputs": [],
            "name": "owner",
            "outputs": [
                {
                    "internalType": "address",
                    "name": "",
                    "type": "address"
                }
            ],
            "stateMutability": "view",
            "type": "function"
        },
        {
            "inputs": [
                {
                    "internalType": "uint256",
                    "name": "tokenId",
                    "type": "uint256"
                }
            ],
            "name": "ownerOf",
            "outputs": [
                {
                    "internalType": "address",
                    "name": "",
                    "type": "address"
                }
            ],
            "stateMutability": "view",
            "type": "function"
        },
        {
            "inputs": [],
            "name": "poolSupply",
            "outputs": [
                {
                    "internalType": "uint256",
                    "name": "",
                    "type": "uint256"
                }
            ],
            "stateMutability": "view",
            "type": "function"
        },
        {
            "inputs": [],
            "name": "renounceOwnership",
            "outputs": [],
            "stateMutability": "nonpayable",
            "type": "function"
        },
        {
            "inputs": [
                {
                    "internalType": "address",
                    "name": "from",
                    "type": "address"
                },
                {
                    "internalType": "address",
                    "name": "to",
                    "type": "address"
                },
                {
                    "internalType": "uint256",
                    "name": "tokenId",
                    "type": "uint256"
                }
            ],
            "name": "safeTransferFrom",
            "outputs": [],
            "stateMutability": "nonpayable",
            "type": "function"
        },
        {
            "inputs": [
                {
                    "internalType": "address",
                    "name": "from",
                    "type": "address"
                },
                {
                    "internalType": "address",
                    "name": "to",
                    "type": "address"
                },
                {
                    "internalType": "uint256",
                    "name": "tokenId",
                    "type": "uint256"
                },
                {
                    "internalType": "bytes",
                    "name": "_data",
                    "type": "bytes"
                }
            ],
            "name": "safeTransferFrom",
            "outputs": [],
            "stateMutability": "nonpayable",
            "type": "function"
        },
        {
            "inputs": [
                {
                    "internalType": "address",
                    "name": "operator",
                    "type": "address"
                },
                {
                    "internalType": "bool",
                    "name": "approved",
                    "type": "bool"
                }
            ],
            "name": "setApprovalForAll",
            "outputs": [],
            "stateMutability": "nonpayable",
            "type": "function"
        },
        {
            "inputs": [
                {
                    "internalType": "string",
                    "name": "_newURI",
                    "type": "string"
                }
            ],
            "name": "setBaseURI",
            "outputs": [],
            "stateMutability": "nonpayable",
            "type": "function"
        },
        {
            "inputs": [
                {
                    "internalType": "uint256",
                    "name": "_newCost",
                    "type": "uint256"
                }
            ],
            "name": "setCost",
            "outputs": [],
            "stateMutability": "nonpayable",
            "type": "function"
        },
        {
            "inputs": [
                {
                    "internalType": "address",
                    "name": "_address",
                    "type": "address"
                }
            ],
            "name": "setGoo",
            "outputs": [],
            "stateMutability": "nonpayable",
            "type": "function"
        },
        {
            "inputs": [
                {
                    "internalType": "bytes4",
                    "name": "interfaceId",
                    "type": "bytes4"
                }
            ],
            "name": "supportsInterface",
            "outputs": [
                {
                    "internalType": "bool",
                    "name": "",
                    "type": "bool"
                }
            ],
            "stateMutability": "view",
            "type": "function"
        },
        {
            "inputs": [],
            "name": "symbol",
            "outputs": [
                {
                    "internalType": "string",
                    "name": "",
                    "type": "string"
                }
            ],
            "stateMutability": "view",
            "type": "function"
        },
        {
            "inputs": [
                {
                    "internalType": "uint256",
                    "name": "tokenId",
                    "type": "uint256"
                }
            ],
            "name": "tokenURI",
            "outputs": [
                {
                    "internalType": "string",
                    "name": "",
                    "type": "string"
                }
            ],
            "stateMutability": "view",
            "type": "function"
        },
        {
            "inputs": [
                {
                    "internalType": "address",
                    "name": "from",
                    "type": "address"
                },
                {
                    "internalType": "address",
                    "name": "to",
                    "type": "address"
                },
                {
                    "internalType": "uint256",
                    "name": "tokenId",
                    "type": "uint256"
                }
            ],
            "name": "transferFrom",
            "outputs": [],
            "stateMutability": "nonpayable",
            "type": "function"
        },
        {
            "inputs": [
                {
                    "internalType": "address",
                    "name": "newOwner",
                    "type": "address"
                }
            ],
            "name": "transferOwnership",
            "outputs": [],
            "stateMutability": "nonpayable",
            "type": "function"
        },
        {
            "inputs": [],
            "name": "withdraw",
            "outputs": [],
            "stateMutability": "payable",
            "type": "function"
        }
    ],
    "bytecode": "0x60806040526000600755670de0b6b3a764000060085560006009556000600a55666a94d74f430000600b55612710600c556000600d60006101000a81548160ff0219169083151502179055503480156200005857600080fd5b506040518060400160405280600d81526020017f53686170657368696674657273000000000000000000000000000000000000008152506040518060400160405280600681526020017f53485053465400000000000000000000000000000000000000000000000000008152508160009080519060200190620000dd92919062000308565b508060019080519060200190620000f692919062000308565b505050620001196200010d6200016560201b60201c565b6200016d60201b60201c565b6200015f6040518060400160405280600881526020017f5552495f484552450000000000000000000000000000000000000000000000008152506200023360201b60201c565b620004a0565b600033905090565b6000600660009054906101000a900473ffffffffffffffffffffffffffffffffffffffff16905081600660006101000a81548173ffffffffffffffffffffffffffffffffffffffff021916908373ffffffffffffffffffffffffffffffffffffffff1602179055508173ffffffffffffffffffffffffffffffffffffffff168173ffffffffffffffffffffffffffffffffffffffff167f8be0079c531659141344cd1fd0a4f28419497f9722a3daafe3b4186f6b6457e060405160405180910390a35050565b620002436200016560201b60201c565b73ffffffffffffffffffffffffffffffffffffffff1662000269620002de60201b60201c565b73ffffffffffffffffffffffffffffffffffffffff1614620002c2576040517f08c379a0000000000000000000000000000000000000000000000000000000008152600401620002b990620003df565b60405180910390fd5b80600e9080519060200190620002da92919062000308565b5050565b6000600660009054906101000a900473ffffffffffffffffffffffffffffffffffffffff16905090565b828054620003169062000412565b90600052602060002090601f0160209004810192826200033a576000855562000386565b82601f106200035557805160ff191683800117855562000386565b8280016001018555821562000386579182015b828111156200038557825182559160200191906001019062000368565b5b50905062000395919062000399565b5090565b5b80821115620003b45760008160009055506001016200039a565b5090565b6000620003c760208362000401565b9150620003d48262000477565b602082019050919050565b60006020820190508181036000830152620003fa81620003b8565b9050919050565b600082825260208201905092915050565b600060028204905060018216806200042b57607f821691505b6020821081141562000442576200044162000448565b5b50919050565b7f4e487b7100000000000000000000000000000000000000000000000000000000600052602260045260246000fd5b7f4f776e61626c653a2063616c6c6572206973206e6f7420746865206f776e6572600082015250565b613fc980620004b06000396000f3fe6080604052600436106101e35760003560e01c806370a0823111610102578063b4c64ab011610095578063d493bd1c11610064578063d493bd1c1461069c578063d5abeb01146106c5578063e985e9c5146106f0578063f2fde38b1461072d576101e3565b8063b4c64ab0146105e2578063b88d4fde1461060d578063c87b56dd14610636578063cdd9503d14610673576101e3565b806395d89b41116100d157806395d89b411461052857806399b2004114610553578063a22cb4651461057c578063b2024ff8146105a5576101e3565b806370a0823114610492578063715018a6146104cf5780637ba5e621146104e65780638da5cb5b146104fd576101e3565b80633ccfd60b1161017a57806355f804b31161014957806355f804b3146103d65780636352211e146103ff5780636a8693811461043c5780636c0360eb14610467576101e3565b80633ccfd60b14610351578063415f12401461035b57806342842e0e1461038457806344a0d68a146103ad576101e3565b80631249c58b116101b65780631249c58b146102b657806313faede6146102c05780631e7269c5146102eb57806323b872dd14610328576101e3565b806301ffc9a7146101e857806306fdde0314610225578063081812fc14610250578063095ea7b31461028d575b600080fd5b3480156101f457600080fd5b5061020f600480360381019061020a9190612c40565b610756565b60405161021c91906131c9565b60405180910390f35b34801561023157600080fd5b5061023a610838565b60405161024791906131ff565b60405180910390f35b34801561025c57600080fd5b5061027760048036038101906102729190612cd3565b6108ca565b6040516102849190613139565b60405180910390f35b34801561029957600080fd5b506102b460048036038101906102af9190612bc3565b61094f565b005b6102be610a67565b005b3480156102cc57600080fd5b506102d5610b8e565b6040516102e291906134e1565b60405180910390f35b3480156102f757600080fd5b50610312600480360381019061030d9190612a58565b610b94565b60405161031f91906131c9565b60405180910390f35b34801561033457600080fd5b5061034f600480360381019061034a9190612abd565b610bb4565b005b610359610c14565b005b34801561036757600080fd5b50610382600480360381019061037d9190612cd3565b610d09565b005b34801561039057600080fd5b506103ab60048036038101906103a69190612abd565b610da4565b005b3480156103b957600080fd5b506103d460048036038101906103cf9190612cd3565b610dc4565b005b3480156103e257600080fd5b506103fd60048036038101906103f89190612c92565b610e4a565b005b34801561040b57600080fd5b5061042660048036038101906104219190612cd3565b610ee0565b6040516104339190613139565b60405180910390f35b34801561044857600080fd5b50610451610f92565b60405161045e91906134e1565b60405180910390f35b34801561047357600080fd5b5061047c610f98565b60405161048991906131ff565b60405180910390f35b34801561049e57600080fd5b506104b960048036038101906104b49190612a58565b611026565b6040516104c691906134e1565b60405180910390f35b3480156104db57600080fd5b506104e46110de565b005b3480156104f257600080fd5b506104fb611166565b005b34801561050957600080fd5b5061051261120e565b60405161051f9190613139565b60405180910390f35b34801561053457600080fd5b5061053d611238565b60405161054a91906131ff565b60405180910390f35b34801561055f57600080fd5b5061057a60048036038101906105759190612bff565b6112ca565b005b34801561058857600080fd5b506105a3600480360381019061059e9190612b87565b611399565b005b3480156105b157600080fd5b506105cc60048036038101906105c79190612cd3565b61151a565b6040516105d991906131c9565b60405180910390f35b3480156105ee57600080fd5b506105f761153a565b60405161060491906131e4565b60405180910390f35b34801561061957600080fd5b50610634600480360381019061062f9190612b0c565b611560565b005b34801561064257600080fd5b5061065d60048036038101906106589190612cd3565b6115c2565b60405161066a91906131ff565b60405180910390f35b34801561067f57600080fd5b5061069a60048036038101906106959190612a58565b611669565b005b3480156106a857600080fd5b506106c360048036038101906106be9190612cd3565b611729565b005b3480156106d157600080fd5b506106da611794565b6040516106e791906134e1565b60405180910390f35b3480156106fc57600080fd5b5061071760048036038101906107129190612a81565b61179a565b60405161072491906131c9565b60405180910390f35b34801561073957600080fd5b50610754600480360381019061074f9190612a58565b61182e565b005b60007f80ac58cd000000000000000000000000000000000000000000000000000000007bffffffffffffffffffffffffffffffffffffffffffffffffffffffff1916827bffffffffffffffffffffffffffffffffffffffffffffffffffffffff1916148061082157507f5b5e139f000000000000000000000000000000000000000000000000000000007bffffffffffffffffffffffffffffffffffffffffffffffffffffffff1916827bffffffffffffffffffffffffffffffffffffffffffffffffffffffff1916145b80610831575061083082611926565b5b9050919050565b60606000805461084790613816565b80601f016020809104026020016040519081016040528092919081815260200182805461087390613816565b80156108c05780601f10610895576101008083540402835291602001916108c0565b820191906000526020600020905b8154815290600101906020018083116108a357829003601f168201915b5050505050905090565b60006108d582611990565b610914576040517f08c379a000000000000000000000000000000000000000000000000000000000815260040161090b90613401565b60405180910390fd5b6004600083815260200190815260200160002060009054906101000a900473ffffffffffffffffffffffffffffffffffffffff169050919050565b600061095a82610ee0565b90508073ffffffffffffffffffffffffffffffffffffffff168373ffffffffffffffffffffffffffffffffffffffff1614156109cb576040517f08c379a00000000000000000000000000000000000000000000000000000000081526004016109c2906134a1565b60405180910390fd5b8073ffffffffffffffffffffffffffffffffffffffff166109ea6119fc565b73ffffffffffffffffffffffffffffffffffffffff161480610a195750610a1881610a136119fc565b61179a565b5b610a58576040517f08c379a0000000000000000000000000000000000000000000000000000000008152600401610a4f90613341565b60405180910390fd5b610a628383611a04565b505050565b600c546001600754610a7991906135fd565b1115610aba576040517f08c379a0000000000000000000000000000000000000000000000000000000008152600401610ab1906133c1565b60405180910390fd5b60011515600d60009054906101000a900460ff16151514610b10576040517f08c379a0000000000000000000000000000000000000000000000000000000008152600401610b0790613241565b60405180910390fd5b6001600f60003373ffffffffffffffffffffffffffffffffffffffff1673ffffffffffffffffffffffffffffffffffffffff16815260200190815260200160002060006101000a81548160ff02191690831515021790555060076000815480929190610b7b90613879565b9190505550610b8c33600754611abd565b565b600b5481565b600f6020528060005260406000206000915054906101000a900460ff1681565b610bc5610bbf6119fc565b82611c8b565b610c04576040517f08c379a0000000000000000000000000000000000000000000000000000000008152600401610bfb906134c1565b60405180910390fd5b610c0f838383611d69565b505050565b610c1c6119fc565b73ffffffffffffffffffffffffffffffffffffffff16610c3a61120e565b73ffffffffffffffffffffffffffffffffffffffff1614610c90576040517f08c379a0000000000000000000000000000000000000000000000000000000008152600401610c8790613441565b60405180910390fd5b60003373ffffffffffffffffffffffffffffffffffffffff1647604051610cb690613124565b60006040518083038185875af1925050503d8060008114610cf3576040519150601f19603f3d011682016040523d82523d6000602084013e610cf8565b606091505b5050905080610d0657600080fd5b50565b3373ffffffffffffffffffffffffffffffffffffffff16610d2982610ee0565b73ffffffffffffffffffffffffffffffffffffffff1614610d7f576040517f08c379a0000000000000000000000000000000000000000000000000000000008152600401610d7690613221565b60405180910390fd5b600a6000815480929190610d9290613879565b9190505550610da13382611fc5565b50565b610dbf83838360405180602001604052806000815250611560565b505050565b610dcc6119fc565b73ffffffffffffffffffffffffffffffffffffffff16610dea61120e565b73ffffffffffffffffffffffffffffffffffffffff1614610e40576040517f08c379a0000000000000000000000000000000000000000000000000000000008152600401610e3790613441565b60405180910390fd5b80600b8190555050565b610e526119fc565b73ffffffffffffffffffffffffffffffffffffffff16610e7061120e565b73ffffffffffffffffffffffffffffffffffffffff1614610ec6576040517f08c379a0000000000000000000000000000000000000000000000000000000008152600401610ebd90613441565b60405180910390fd5b80600e9080519060200190610edc9291906127e6565b5050565b6000806002600084815260200190815260200160002060009054906101000a900473ffffffffffffffffffffffffffffffffffffffff169050600073ffffffffffffffffffffffffffffffffffffffff168173ffffffffffffffffffffffffffffffffffffffff161415610f89576040517f08c379a0000000000000000000000000000000000000000000000000000000008152600401610f80906133a1565b60405180910390fd5b80915050919050565b600a5481565b600e8054610fa590613816565b80601f0160208091040260200160405190810160405280929190818152602001828054610fd190613816565b801561101e5780601f10610ff35761010080835404028352916020019161101e565b820191906000526020600020905b81548152906001019060200180831161100157829003601f168201915b505050505081565b60008073ffffffffffffffffffffffffffffffffffffffff168273ffffffffffffffffffffffffffffffffffffffff161415611097576040517f08c379a000000000000000000000000000000000000000000000000000000000815260040161108e90613381565b60405180910390fd5b600360008373ffffffffffffffffffffffffffffffffffffffff1673ffffffffffffffffffffffffffffffffffffffff168152602001908152602001600020549050919050565b6110e66119fc565b73ffffffffffffffffffffffffffffffffffffffff1661110461120e565b73ffffffffffffffffffffffffffffffffffffffff161461115a576040517f08c379a000000000000000000000000000000000000000000000000000000000815260040161115190613441565b60405180910390fd5b6111646000612102565b565b61116e6119fc565b73ffffffffffffffffffffffffffffffffffffffff1661118c61120e565b73ffffffffffffffffffffffffffffffffffffffff16146111e2576040517f08c379a00000000000000000000000000000000000000000000000000000000081526004016111d990613441565b60405180910390fd5b600d60009054906101000a900460ff1615600d60006101000a81548160ff021916908315150217905550565b6000600660009054906101000a900473ffffffffffffffffffffffffffffffffffffffff16905090565b60606001805461124790613816565b80601f016020809104026020016040519081016040528092919081815260200182805461127390613816565b80156112c05780601f10611295576101008083540402835291602001916112c0565b820191906000526020600020905b8154815290600101906020018083116112a357829003601f168201915b5050505050905090565b60008151905080600a541015611315576040517f08c379a000000000000000000000000000000000000000000000000000000000815260040161130c90613421565b60405180910390fd5b80600a600082825461132791906136de565b9250508190555060005b818110156113945761138333848381518110611376577f4e487b7100000000000000000000000000000000000000000000000000000000600052603260045260246000fd5b60200260200101516121c8565b8061138d90613879565b9050611331565b505050565b6113a16119fc565b73ffffffffffffffffffffffffffffffffffffffff168273ffffffffffffffffffffffffffffffffffffffff16141561140f576040517f08c379a000000000000000000000000000000000000000000000000000000000815260040161140690613301565b60405180910390fd5b806005600061141c6119fc565b73ffffffffffffffffffffffffffffffffffffffff1673ffffffffffffffffffffffffffffffffffffffff16815260200190815260200160002060008473ffffffffffffffffffffffffffffffffffffffff1673ffffffffffffffffffffffffffffffffffffffff16815260200190815260200160002060006101000a81548160ff0219169083151502179055508173ffffffffffffffffffffffffffffffffffffffff166114c96119fc565b73ffffffffffffffffffffffffffffffffffffffff167f17307eab39ab6107e8899845ad3d59bd9653f200f220920489ca2b5937696c318360405161150e91906131c9565b60405180910390a35050565b60106020528060005260406000206000915054906101000a900460ff1681565b601160009054906101000a900473ffffffffffffffffffffffffffffffffffffffff1681565b61157161156b6119fc565b83611c8b565b6115b0576040517f08c379a00000000000000000000000000000000000000000000000000000000081526004016115a7906134c1565b60405180910390fd5b6115bc84848484612306565b50505050565b60606115cd82611990565b61160c576040517f08c379a000000000000000000000000000000000000000000000000000000000815260040161160390613481565b60405180910390fd5b6000611616612362565b905060008151116116365760405180602001604052806000815250611661565b8061164084612379565b604051602001611651929190613100565b6040516020818303038152906040525b915050919050565b6116716119fc565b73ffffffffffffffffffffffffffffffffffffffff1661168f61120e565b73ffffffffffffffffffffffffffffffffffffffff16146116e5576040517f08c379a00000000000000000000000000000000000000000000000000000000081526004016116dc90613441565b60405180910390fd5b80601160006101000a81548173ffffffffffffffffffffffffffffffffffffffff021916908373ffffffffffffffffffffffffffffffffffffffff16021790555050565b6000600a54141561176f576040517f08c379a000000000000000000000000000000000000000000000000000000000815260040161176690613421565b60405180910390fd5b600a6000815480929190611782906137ec565b919050555061179133826121c8565b50565b600c5481565b6000600560008473ffffffffffffffffffffffffffffffffffffffff1673ffffffffffffffffffffffffffffffffffffffff16815260200190815260200160002060008373ffffffffffffffffffffffffffffffffffffffff1673ffffffffffffffffffffffffffffffffffffffff16815260200190815260200160002060009054906101000a900460ff16905092915050565b6118366119fc565b73ffffffffffffffffffffffffffffffffffffffff1661185461120e565b73ffffffffffffffffffffffffffffffffffffffff16146118aa576040517f08c379a00000000000000000000000000000000000000000000000000000000081526004016118a190613441565b60405180910390fd5b600073ffffffffffffffffffffffffffffffffffffffff168173ffffffffffffffffffffffffffffffffffffffff16141561191a576040517f08c379a000000000000000000000000000000000000000000000000000000000815260040161191190613281565b60405180910390fd5b61192381612102565b50565b60007f01ffc9a7000000000000000000000000000000000000000000000000000000007bffffffffffffffffffffffffffffffffffffffffffffffffffffffff1916827bffffffffffffffffffffffffffffffffffffffffffffffffffffffff1916149050919050565b60008073ffffffffffffffffffffffffffffffffffffffff166002600084815260200190815260200160002060009054906101000a900473ffffffffffffffffffffffffffffffffffffffff1673ffffffffffffffffffffffffffffffffffffffff1614159050919050565b600033905090565b816004600083815260200190815260200160002060006101000a81548173ffffffffffffffffffffffffffffffffffffffff021916908373ffffffffffffffffffffffffffffffffffffffff160217905550808273ffffffffffffffffffffffffffffffffffffffff16611a7783610ee0565b73ffffffffffffffffffffffffffffffffffffffff167f8c5be1e5ebec7d5bd14f71427d1e84f3dd0314c0f7b2291e5b200ac8c7c3b92560405160405180910390a45050565b600073ffffffffffffffffffffffffffffffffffffffff168273ffffffffffffffffffffffffffffffffffffffff161415611b2d576040517f08c379a0000000000000000000000000000000000000000000000000000000008152600401611b24906133e1565b60405180910390fd5b611b3681611990565b15611b76576040517f08c379a0000000000000000000000000000000000000000000000000000000008152600401611b6d906132a1565b60405180910390fd5b611b8260008383612526565b6001600360008473ffffffffffffffffffffffffffffffffffffffff1673ffffffffffffffffffffffffffffffffffffffff1681526020019081526020016000206000828254611bd291906135fd565b92505081905550816002600083815260200190815260200160002060006101000a81548173ffffffffffffffffffffffffffffffffffffffff021916908373ffffffffffffffffffffffffffffffffffffffff160217905550808273ffffffffffffffffffffffffffffffffffffffff16600073ffffffffffffffffffffffffffffffffffffffff167fddf252ad1be2c89b69c2b068fc378daa952ba7f163c4a11628f55a4df523b3ef60405160405180910390a45050565b6000611c9682611990565b611cd5576040517f08c379a0000000000000000000000000000000000000000000000000000000008152600401611ccc90613321565b60405180910390fd5b6000611ce083610ee0565b90508073ffffffffffffffffffffffffffffffffffffffff168473ffffffffffffffffffffffffffffffffffffffff161480611d4f57508373ffffffffffffffffffffffffffffffffffffffff16611d37846108ca565b73ffffffffffffffffffffffffffffffffffffffff16145b80611d605750611d5f818561179a565b5b91505092915050565b8273ffffffffffffffffffffffffffffffffffffffff16611d8982610ee0565b73ffffffffffffffffffffffffffffffffffffffff1614611ddf576040517f08c379a0000000000000000000000000000000000000000000000000000000008152600401611dd690613461565b60405180910390fd5b600073ffffffffffffffffffffffffffffffffffffffff168273ffffffffffffffffffffffffffffffffffffffff161415611e4f576040517f08c379a0000000000000000000000000000000000000000000000000000000008152600401611e46906132e1565b60405180910390fd5b611e5a838383612526565b611e65600082611a04565b6001600360008573ffffffffffffffffffffffffffffffffffffffff1673ffffffffffffffffffffffffffffffffffffffff1681526020019081526020016000206000828254611eb591906136de565b925050819055506001600360008473ffffffffffffffffffffffffffffffffffffffff1673ffffffffffffffffffffffffffffffffffffffff1681526020019081526020016000206000828254611f0c91906135fd565b92505081905550816002600083815260200190815260200160002060006101000a81548173ffffffffffffffffffffffffffffffffffffffff021916908373ffffffffffffffffffffffffffffffffffffffff160217905550808273ffffffffffffffffffffffffffffffffffffffff168473ffffffffffffffffffffffffffffffffffffffff167fddf252ad1be2c89b69c2b068fc378daa952ba7f163c4a11628f55a4df523b3ef60405160405180910390a4505050565b600015156010600083815260200190815260200160002060009054906101000a900460ff1615151461202c576040517f08c379a000000000000000000000000000000000000000000000000000000000815260040161202390613361565b60405180910390fd5b60016010600083815260200190815260200160002060006101000a81548160ff021916908315150217905550601160009054906101000a900473ffffffffffffffffffffffffffffffffffffffff1673ffffffffffffffffffffffffffffffffffffffff166340c10f198360085460646120a69190613684565b6040518363ffffffff1660e01b81526004016120c39291906131a0565b600060405180830381600087803b1580156120dd57600080fd5b505af11580156120f1573d6000803e3d6000fd5b505050506120fe8161252b565b5050565b6000600660009054906101000a900473ffffffffffffffffffffffffffffffffffffffff16905081600660006101000a81548173ffffffffffffffffffffffffffffffffffffffff021916908373ffffffffffffffffffffffffffffffffffffffff1602179055508173ffffffffffffffffffffffffffffffffffffffff168173ffffffffffffffffffffffffffffffffffffffff167f8be0079c531659141344cd1fd0a4f28419497f9722a3daafe3b4186f6b6457e060405160405180910390a35050565b600115156010600083815260200190815260200160002060009054906101000a900460ff1615151461222f576040517f08c379a0000000000000000000000000000000000000000000000000000000008152600401612226906132c1565b60405180910390fd5b60006010600083815260200190815260200160002060006101000a81548160ff021916908315150217905550601160009054906101000a900473ffffffffffffffffffffffffffffffffffffffff1673ffffffffffffffffffffffffffffffffffffffff16639dc29fac8360085460646122a99190613684565b6040518363ffffffff1660e01b81526004016122c69291906131a0565b600060405180830381600087803b1580156122e057600080fd5b505af11580156122f4573d6000803e3d6000fd5b505050506123028282611abd565b5050565b612311848484611d69565b61231d8484848461263c565b61235c576040517f08c379a000000000000000000000000000000000000000000000000000000000815260040161235390613261565b60405180910390fd5b50505050565b606060405180602001604052806000815250905090565b606060008214156123c1576040518060400160405280600181526020017f30000000000000000000000000000000000000000000000000000000000000008152509050612521565b600082905060005b600082146123f35780806123dc90613879565b915050600a826123ec9190613653565b91506123c9565b60008167ffffffffffffffff811115612435577f4e487b7100000000000000000000000000000000000000000000000000000000600052604160045260246000fd5b6040519080825280601f01601f1916602001820160405280156124675781602001600182028036833780820191505090505b5090505b6000851461251a5760018261248091906136de565b9150600a8561248f91906138c2565b603061249b91906135fd565b60f81b8183815181106124d7577f4e487b7100000000000000000000000000000000000000000000000000000000600052603260045260246000fd5b60200101907effffffffffffffffffffffffffffffffffffffffffffffffffffffffffffff1916908160001a905350600a856125139190613653565b945061246b565b8093505050505b919050565b505050565b600061253682610ee0565b905061254481600084612526565b61254f600083611a04565b6001600360008373ffffffffffffffffffffffffffffffffffffffff1673ffffffffffffffffffffffffffffffffffffffff168152602001908152602001600020600082825461259f91906136de565b925050819055506002600083815260200190815260200160002060006101000a81549073ffffffffffffffffffffffffffffffffffffffff021916905581600073ffffffffffffffffffffffffffffffffffffffff168273ffffffffffffffffffffffffffffffffffffffff167fddf252ad1be2c89b69c2b068fc378daa952ba7f163c4a11628f55a4df523b3ef60405160405180910390a45050565b600061265d8473ffffffffffffffffffffffffffffffffffffffff166127d3565b156127c6578373ffffffffffffffffffffffffffffffffffffffff1663150b7a026126866119fc565b8786866040518563ffffffff1660e01b81526004016126a89493929190613154565b602060405180830381600087803b1580156126c257600080fd5b505af19250505080156126f357506040513d601f19601f820116820180604052508101906126f09190612c69565b60015b612776573d8060008114612723576040519150601f19603f3d011682016040523d82523d6000602084013e612728565b606091505b5060008151141561276e576040517f08c379a000000000000000000000000000000000000000000000000000000000815260040161276590613261565b60405180910390fd5b805181602001fd5b63150b7a0260e01b7bffffffffffffffffffffffffffffffffffffffffffffffffffffffff1916817bffffffffffffffffffffffffffffffffffffffffffffffffffffffff1916149150506127cb565b600190505b949350505050565b600080823b905060008111915050919050565b8280546127f290613816565b90600052602060002090601f016020900481019282612814576000855561285b565b82601f1061282d57805160ff191683800117855561285b565b8280016001018555821561285b579182015b8281111561285a57825182559160200191906001019061283f565b5b509050612868919061286c565b5090565b5b8082111561288557600081600090555060010161286d565b5090565b600061289c61289784613521565b6134fc565b905080838252602082019050828560208602820111156128bb57600080fd5b60005b858110156128eb57816128d18882612a43565b8452602084019350602083019250506001810190506128be565b5050509392505050565b60006129086129038461354d565b6134fc565b90508281526020810184848401111561292057600080fd5b61292b8482856137aa565b509392505050565b60006129466129418461357e565b6134fc565b90508281526020810184848401111561295e57600080fd5b6129698482856137aa565b509392505050565b60008135905061298081613f37565b92915050565b600082601f83011261299757600080fd5b81356129a7848260208601612889565b91505092915050565b6000813590506129bf81613f4e565b92915050565b6000813590506129d481613f65565b92915050565b6000815190506129e981613f65565b92915050565b600082601f830112612a0057600080fd5b8135612a108482602086016128f5565b91505092915050565b600082601f830112612a2a57600080fd5b8135612a3a848260208601612933565b91505092915050565b600081359050612a5281613f7c565b92915050565b600060208284031215612a6a57600080fd5b6000612a7884828501612971565b91505092915050565b60008060408385031215612a9457600080fd5b6000612aa285828601612971565b9250506020612ab385828601612971565b9150509250929050565b600080600060608486031215612ad257600080fd5b6000612ae086828701612971565b9350506020612af186828701612971565b9250506040612b0286828701612a43565b9150509250925092565b60008060008060808587031215612b2257600080fd5b6000612b3087828801612971565b9450506020612b4187828801612971565b9350506040612b5287828801612a43565b925050606085013567ffffffffffffffff811115612b6f57600080fd5b612b7b878288016129ef565b91505092959194509250565b60008060408385031215612b9a57600080fd5b6000612ba885828601612971565b9250506020612bb9858286016129b0565b9150509250929050565b60008060408385031215612bd657600080fd5b6000612be485828601612971565b9250506020612bf585828601612a43565b9150509250929050565b600060208284031215612c1157600080fd5b600082013567ffffffffffffffff811115612c2b57600080fd5b612c3784828501612986565b91505092915050565b600060208284031215612c5257600080fd5b6000612c60848285016129c5565b91505092915050565b600060208284031215612c7b57600080fd5b6000612c89848285016129da565b91505092915050565b600060208284031215612ca457600080fd5b600082013567ffffffffffffffff811115612cbe57600080fd5b612cca84828501612a19565b91505092915050565b600060208284031215612ce557600080fd5b6000612cf384828501612a43565b91505092915050565b612d0581613712565b82525050565b612d1481613724565b82525050565b6000612d25826135af565b612d2f81856135c5565b9350612d3f8185602086016137b9565b612d48816139af565b840191505092915050565b612d5c81613786565b82525050565b6000612d6d826135ba565b612d7781856135e1565b9350612d878185602086016137b9565b612d90816139af565b840191505092915050565b6000612da6826135ba565b612db081856135f2565b9350612dc08185602086016137b9565b80840191505092915050565b6000612dd96024836135e1565b9150612de4826139c0565b604082019050919050565b6000612dfc6017836135e1565b9150612e0782613a0f565b602082019050919050565b6000612e1f6032836135e1565b9150612e2a82613a38565b604082019050919050565b6000612e426026836135e1565b9150612e4d82613a87565b604082019050919050565b6000612e65601c836135e1565b9150612e7082613ad6565b602082019050919050565b6000612e88600f836135e1565b9150612e9382613aff565b602082019050919050565b6000612eab6024836135e1565b9150612eb682613b28565b604082019050919050565b6000612ece6019836135e1565b9150612ed982613b77565b602082019050919050565b6000612ef1602c836135e1565b9150612efc82613ba0565b604082019050919050565b6000612f146038836135e1565b9150612f1f82613bef565b604082019050919050565b6000612f376013836135e1565b9150612f4282613c3e565b602082019050919050565b6000612f5a602a836135e1565b9150612f6582613c67565b604082019050919050565b6000612f7d6029836135e1565b9150612f8882613cb6565b604082019050919050565b6000612fa06012836135e1565b9150612fab82613d05565b602082019050919050565b6000612fc36020836135e1565b9150612fce82613d2e565b602082019050919050565b6000612fe6602c836135e1565b9150612ff182613d57565b604082019050919050565b60006130096020836135e1565b915061301482613da6565b602082019050919050565b600061302c6020836135e1565b915061303782613dcf565b602082019050919050565b600061304f6029836135e1565b915061305a82613df8565b604082019050919050565b6000613072602f836135e1565b915061307d82613e47565b604082019050919050565b60006130956021836135e1565b91506130a082613e96565b604082019050919050565b60006130b86000836135d6565b91506130c382613ee5565b600082019050919050565b60006130db6031836135e1565b91506130e682613ee8565b604082019050919050565b6130fa8161377c565b82525050565b600061310c8285612d9b565b91506131188284612d9b565b91508190509392505050565b600061312f826130ab565b9150819050919050565b600060208201905061314e6000830184612cfc565b92915050565b60006080820190506131696000830187612cfc565b6131766020830186612cfc565b61318360408301856130f1565b81810360608301526131958184612d1a565b905095945050505050565b60006040820190506131b56000830185612cfc565b6131c260208301846130f1565b9392505050565b60006020820190506131de6000830184612d0b565b92915050565b60006020820190506131f96000830184612d53565b92915050565b600060208201905081810360008301526132198184612d62565b905092915050565b6000602082019050818103600083015261323a81612dcc565b9050919050565b6000602082019050818103600083015261325a81612def565b9050919050565b6000602082019050818103600083015261327a81612e12565b9050919050565b6000602082019050818103600083015261329a81612e35565b9050919050565b600060208201905081810360008301526132ba81612e58565b9050919050565b600060208201905081810360008301526132da81612e7b565b9050919050565b600060208201905081810360008301526132fa81612e9e565b9050919050565b6000602082019050818103600083015261331a81612ec1565b9050919050565b6000602082019050818103600083015261333a81612ee4565b9050919050565b6000602082019050818103600083015261335a81612f07565b9050919050565b6000602082019050818103600083015261337a81612f2a565b9050919050565b6000602082019050818103600083015261339a81612f4d565b9050919050565b600060208201905081810360008301526133ba81612f70565b9050919050565b600060208201905081810360008301526133da81612f93565b9050919050565b600060208201905081810360008301526133fa81612fb6565b9050919050565b6000602082019050818103600083015261341a81612fd9565b9050919050565b6000602082019050818103600083015261343a81612ffc565b9050919050565b6000602082019050818103600083015261345a8161301f565b9050919050565b6000602082019050818103600083015261347a81613042565b9050919050565b6000602082019050818103600083015261349a81613065565b9050919050565b600060208201905081810360008301526134ba81613088565b9050919050565b600060208201905081810360008301526134da816130ce565b9050919050565b60006020820190506134f660008301846130f1565b92915050565b6000613506613517565b90506135128282613848565b919050565b6000604051905090565b600067ffffffffffffffff82111561353c5761353b613980565b5b602082029050602081019050919050565b600067ffffffffffffffff82111561356857613567613980565b5b613571826139af565b9050602081019050919050565b600067ffffffffffffffff82111561359957613598613980565b5b6135a2826139af565b9050602081019050919050565b600081519050919050565b600081519050919050565b600082825260208201905092915050565b600081905092915050565b600082825260208201905092915050565b600081905092915050565b60006136088261377c565b91506136138361377c565b9250827fffffffffffffffffffffffffffffffffffffffffffffffffffffffffffffffff03821115613648576136476138f3565b5b828201905092915050565b600061365e8261377c565b91506136698361377c565b92508261367957613678613922565b5b828204905092915050565b600061368f8261377c565b915061369a8361377c565b9250817fffffffffffffffffffffffffffffffffffffffffffffffffffffffffffffffff04831182151516156136d3576136d26138f3565b5b828202905092915050565b60006136e98261377c565b91506136f48361377c565b925082821015613707576137066138f3565b5b828203905092915050565b600061371d8261375c565b9050919050565b60008115159050919050565b60007fffffffff0000000000000000000000000000000000000000000000000000000082169050919050565b600073ffffffffffffffffffffffffffffffffffffffff82169050919050565b6000819050919050565b600061379182613798565b9050919050565b60006137a38261375c565b9050919050565b82818337600083830152505050565b60005b838110156137d75780820151818401526020810190506137bc565b838111156137e6576000848401525b50505050565b60006137f78261377c565b9150600082141561380b5761380a6138f3565b5b600182039050919050565b6000600282049050600182168061382e57607f821691505b6020821081141561384257613841613951565b5b50919050565b613851826139af565b810181811067ffffffffffffffff821117156138705761386f613980565b5b80604052505050565b60006138848261377c565b91507fffffffffffffffffffffffffffffffffffffffffffffffffffffffffffffffff8214156138b7576138b66138f3565b5b600182019050919050565b60006138cd8261377c565b91506138d88361377c565b9250826138e8576138e7613922565b5b828206905092915050565b7f4e487b7100000000000000000000000000000000000000000000000000000000600052601160045260246000fd5b7f4e487b7100000000000000000000000000000000000000000000000000000000600052601260045260246000fd5b7f4e487b7100000000000000000000000000000000000000000000000000000000600052602260045260246000fd5b7f4e487b7100000000000000000000000000000000000000000000000000000000600052604160045260246000fd5b6000601f19601f8301169050919050565b7f596f752063616e2774206275726e20616e6f746865727320536861706573686960008201527f6674657200000000000000000000000000000000000000000000000000000000602082015250565b7f53616c65206973206e6f74207965742073746172746564000000000000000000600082015250565b7f4552433732313a207472616e7366657220746f206e6f6e20455243373231526560008201527f63656976657220696d706c656d656e7465720000000000000000000000000000602082015250565b7f4f776e61626c653a206e6577206f776e657220697320746865207a65726f206160008201527f6464726573730000000000000000000000000000000000000000000000000000602082015250565b7f4552433732313a20746f6b656e20616c7265616479206d696e74656400000000600082015250565b7f4e6f7420696e20476f6f20706f6f6c0000000000000000000000000000000000600082015250565b7f4552433732313a207472616e7366657220746f20746865207a65726f2061646460008201527f7265737300000000000000000000000000000000000000000000000000000000602082015250565b7f4552433732313a20617070726f766520746f2063616c6c657200000000000000600082015250565b7f4552433732313a206f70657261746f7220717565727920666f72206e6f6e657860008201527f697374656e7420746f6b656e0000000000000000000000000000000000000000602082015250565b7f4552433732313a20617070726f76652063616c6c6572206973206e6f74206f7760008201527f6e6572206e6f7220617070726f76656420666f7220616c6c0000000000000000602082015250565b7f416c726561647920696e20476f6f20706f6f6c00000000000000000000000000600082015250565b7f4552433732313a2062616c616e636520717565727920666f7220746865207a6560008201527f726f206164647265737300000000000000000000000000000000000000000000602082015250565b7f4552433732313a206f776e657220717565727920666f72206e6f6e657869737460008201527f656e7420746f6b656e0000000000000000000000000000000000000000000000602082015250565b7f45786365656473206d617820737570706c790000000000000000000000000000600082015250565b7f4552433732313a206d696e7420746f20746865207a65726f2061646472657373600082015250565b7f4552433732313a20617070726f76656420717565727920666f72206e6f6e657860008201527f697374656e7420746f6b656e0000000000000000000000000000000000000000602082015250565b7f4e6f7420656e6f756768205368617065736869667465727320696e20706f6f6c600082015250565b7f4f776e61626c653a2063616c6c6572206973206e6f7420746865206f776e6572600082015250565b7f4552433732313a207472616e73666572206f6620746f6b656e2074686174206960008201527f73206e6f74206f776e0000000000000000000000000000000000000000000000602082015250565b7f4552433732314d657461646174613a2055524920717565727920666f72206e6f60008201527f6e6578697374656e7420746f6b656e0000000000000000000000000000000000602082015250565b7f4552433732313a20617070726f76616c20746f2063757272656e74206f776e6560008201527f7200000000000000000000000000000000000000000000000000000000000000602082015250565b50565b7f4552433732313a207472616e736665722063616c6c6572206973206e6f74206f60008201527f776e6572206e6f7220617070726f766564000000000000000000000000000000602082015250565b613f4081613712565b8114613f4b57600080fd5b50565b613f5781613724565b8114613f6257600080fd5b50565b613f6e81613730565b8114613f7957600080fd5b50565b613f858161377c565b8114613f9057600080fd5b5056fea26469706673582212204e52e7917e2f2430e565f8b0da59ae054c3188f947985be23e7c1ea09f7c42ca64736f6c63430008040033",
    "linkReferences": {},
    "deployedLinkReferences": {}
}